S01400004C617468655F617474696E792E737265632A
S11300001AC03EC03DC06DC198C13AC039C038C0A5
S113001037C02AC135C034C033C049C131C030C033
S11300202FC02EC02DC02CC02BC02AC029C028C070
S113003027C026C0DE0511241FBECFEFCDBFDFE3EE
S1130040DEBF1EE3A0E0BEE3ECEBF2E102C00590EC
S11300500D92A430B107D9F72EE3A4E0BEE301C0AA
S11300601D92A532B207E1F710E0CBE1D0E003C066
S11300702197FE010DD9CA31D107D1F76DD20EC92E
S1130080BFCFE0E2F4E081E08183868388E081836E
S113009085830895CF93DF9300D0CDB7DEB719825F
S11300A01A8288E08093260421E22A95F1F7000061
S11300B08093250481E28A95F1F7000080E090E0C6
S11300C041E05091280429813A8151FB662760F967
S11300D070E0FB01082E02C0EE0FFF1F0A94E2F746
S11300E02E2B3F2B29833A834093250421E22A9522
S11300F0F1F700004093260421E22A95F1F700006D
S1130100019680319105E9F689819A810F900F90CB
S1130110DF91CF9108950F931F93CF93DF93BADFAD
S11301209C0187FB002700F910E0AC0140745527BF
S113013085E0569547958A95E1F7402B512BC901E7
S11301408072992763E0969587956A95E1F7482B25
S1130150592BC9018071992796958795482B592B5E
S11301606AE0649FC001659F900D1124A901442792
S11301705870BA01672F7727669566956695A90129
S113018044275470452F55274695462B572BF90184
S1130190EE27F270EE0FEF2FEE1FFF0BF1954E2BB3
S11301A05F2BF901EE27F170B5E0F695E795BA9566
S11301B0E1F74E2B5F2BE4E6E49FB001E59F700D61
S11301C01124680F791F23FB882780F9C82F80E04A
S11301D0D82FC90184709927969587958C2B9D2BD0
S11301E0A90142705527440F551F842B952BA90153
S11301F041705527E3E0440F551FEA95E1F7842B3E
S1130200952B860F971FA90144275074BA01672FB5
S11302107727629566956770A90144275072452F28
S11302205527469546954695462B572BB901662783
S1130230770F661F7727462B572B22273071232FE2
S113024033272695242B352B68EE73E0269FA001D7
S1130250279F500D369F500D1124840F951FDF9159
S1130260CF911F910F9108951F920F920FB60F9285
S113027011248F939F9380911D3E90911E3E892B54
S113028031F480910A0A8D7F80930A0A09C0809113
S11302901D3E90911E3E019780931D3E90931E3EFD
S11302A09F918F910F900FBE0F901F9018951F92E2
S11302B00F920FB60F9211248F9381E08093460A18
S11302C08093470480911C3E882329F080911C3E32
S11302D0815080931C3E8F910F900FBE0F901F9002
S11302E018951F920F920FB60F9211242F938F938C
S11302F09F93EF93FF93E0E0F4E08FEF8187808595
S1130300881F8827881F8093223E90852091223E53
S113031096FB882780F9822B8093233E80858295E3
S113032081708093213EFF91EF919F918F912F9146
S11303300F900FBE0F901F9018951F920F920FB63B
S11303400F9211248F93EF93FF93E0E2F4E08FEF89
S11303508187808582FB882780F98093213EFF91E5
S1130360EF918F910F900FBE0F901F90189590E012
S113037088ED84BF909361000895E0EAF0E080E3A3
S11303808083818182608183E0E0F6E084E0808381
S113039083E0818312828283868381858160818761
S11303A08081816080830895E0E0FAE091E09383A6
S11303B08FEF87A380E881A711A280E181838685DE
S11303C08160868785E08093193EA091193E208143
S11303D0B0E0A055BD468C91822B8083E0E4FAE026
S11303E014861586108211828085816080879583AA
S11303F008959091080690FDFCCF809306068091A5
S113040008068160809308068091080680FDFCCF71
S1130410809110069091110623E0969587952A9570
S1130420E1F799270895CF92DF92EF92FF92CF934D
S1130430DF93EC01E091193EF0E0EE0FFF1FEC5466
S1130440FD466081718180E090E0DED56B017C0126
S1130450BE0180E090E0D8D59B01AC01C701B60194
S113046066D620E030E048EC54E461D69B01AC0150
S113047068E17DE08FE89EE41FD597D5CB01DF913D
S1130480CF91FF90EF90DF90CF9008958FEF9091F0
S1130490243E891738F18093270A982F96959093D4
S11304A0290A2091013E3091023E20931D3E309353
S11304B01E3E90910A0A926090930A0A20911D3E72
S11304C030911E3E232B21F09091233E9130B1F3C5
S11304D09091233E911104C082E0809346040895D4
S11304E08150D5CF08958091243E8134D8F48093EF
S11304F0270A982F96959093290A2091013E3091CE
S1130500023E20931D3E30931E3E90910A0A926053
S113051090930A0A20911D3E30911E3E232BD1F761
S11305208F5FE3CF089582E08093450487E098E0ED
S1130530909347042FE73AE146E021503040404091
S1130540E1F700C00000815099F788E080934604E9
S113055082E0809346040895CF93DF93CDB7DEB74E
S11305602797CDBFDEBF03DF89E88093160480930D
S11305701704809332048093140488E08093460423
S1130580809341048093020281E080934604809327
S113059041048093030280E88093510492E0909395
S11305A04604909341048093520484E0809346046B
S11305B080934104E2DE85E09EE38BD384E09EE3F6
S11305C060DD8091003E813099F48091080486FDBD
S11305D0FCCF8091080487FDF8CF8091280482FD28
S11305E0F4CF8091080484FDF0CF1092003E9BDF8D
S11305F0DBDE789430E8232E3EE3332E48E8A42E45
S1130600B12C50EB852E54E0952E8091003E811143
S113061009C08091233E811105C08091213E882329
S113062009F401C112E08091003E81110DC0809156
S1130630233E813049F48091213E811105C080918F
S1130640223E882309F4FAC18091003E811113C02F
S11306508091233E813079F48091213E81110BC039
S11306608091223E813039F480911F3E9091203E4A
S1130670459708F4E3C194E08091003E811109C0DC
S11306808091233E811105C08091213E813009F47F
S11306900BC214E004E082E0F82E8091003E811148
S11306A070C08091233E813009F06BC080911D3E63
S11306B090911E3E892B09F064C08091213E8130C7
S11306C009F05FC080911F3E9091203E459708F04D
S11306D016C257C08091213E813009F04CC08091F0
S11306E01F3E9091203E459708F045C029813A81EC
S11306F04B815C81C701B60173D320E030E040E850
S11307005FE310D518160CF041C229813A814B8160
S11307105C810D811E81C701B60162D32B013C01AE
S1130720B80180E090E070D49B01AC01C301B20138
S113073056D369837A838B839C8369817A818B8185
S11307409C8133D46D837E838D819E81009709F0D3
S113075025C2F1E0F093470483EF91E00197F1F7AC
S113076000C000008091003E811105C08091233EAD
S1130770813009F4AFCF92E090934604E4E0E09333
S113078046048091003E811140CF8091233E813008
S113079009F03BCF8091213E813009F036CF809122
S11307A01F3E9091203E459708F02FCF9FE7EAE146
S11307B0F6E09150E040F040E1F700C00000809185
S11307C0000A8E7F8093000A8091400A8E7F809376
S11307D0400A1092010A60911A3E70911B3E80E01B
S11307E090E012D420E030E04AE754E465D324EDED
S11307F03FE746E559E360D39B01AC0160E070E05C
S113080088EC94E459D36B017C0169837A838B83EC
S11308109C83CBD36D837E8322E02093450434E014
S11308203093450499CF8091000A8E7F8093000A0B
S11308308091400A8E7F8093400A83E08093193E22
S1130840E091193E9091000AF0E0E055FD46808168
S1130850892B8093000A80E18093010A8FEF8093B3
S1130860270A90E89093290A2FEF3FEF20931D3E2B
S113087030931E3E80931C3E8091003E8111C5CE74
S11308808091233E8111C1CE8091213E8111BDCE44
S113089084E09EE340DC80931A3E90931B3E83E009
S11308A0A8DD80958093243E8091243E66E0D0D4D8
S11308B08F5F8093243E8091243E8B3050F480914E
S11308C0243E940144E6849F201931091124C9016E
S11308D009C08091243EF50123E0829FE019F109CB
S11308E01124CF0180931F3E9093203E24EBC22E0F
S11308F022E9D22EF12C0FEF1FEF1F82F601619136
S113090071916F0180E090E07FD32B013C016091F5
S11309101F3E7091203E80E090E076D3A3019201C7
S113092006D420E030E048EC54E401D49B01AC014F
S113093068E17DE08FE89EE4BFD237D3E62E70E015
S113094080E090E061D3A3019201F1D320E030E094
S113095048EC54E4ECD39B01AC0168E17DE08FE802
S11309609EE4AAD21BD320911F3E3091203E261B29
S1130970370B37FF03C03195219531092017310713
S113098070F400911F3E1091203E061B170B17FFB9
S113099003C0119501951109F092193EEF82F39469
S11309A0F4E0FF12ABCF2F812093243EE091193E57
S11309B01091243EF0E0EE0FFF1FEC54FD466081E1
S11309C0718180E090E020D36B017C01612F70E0A5
S11309D080E090E01BD39B01AC01C701B601A7D313
S11309E020E030E046E954E4A2D39B01AC0168E185
S11309F07DE08FE89EE460D220E030E040E251E404
S1130A0096D3D3D26093013E7093023EF894109231
S1130A10000AE091193E9091000AF0E0E055FD468D
S1130A208081892B8093000A78948091243E90E001
S1130A30FADCBC0185E09EE37FD11ECF9FE7EAE1AB
S1130A40F6E09150E040F040E1F700C000006BDDBB
S1130A500091223E80911D3E90911E3E892B71F0A3
S1130A608091000A81608093000A1093450483EF0B
S1130A7091E00197F1F700C0000008DD8091003E8D
S1130A80811108C08091233E813021F48091213E60
S1130A908823A1F38091233E8111C5CD0111C3CDDB
S1130AA022DD10934604BFCD2FE73AE146E0215002
S1130AB030404040E1F700C00000E0E2F3E0E093A2
S1130AC04C0AF0934D0A8091400A81608093400A59
S1130AD090934504E3EFF1E03197F1F700C0000093
S1130AE08091003E811108C08091233E811104C091
S1130AF08091213E8130A1F390934604BDCDFFE760
S1130B002AE136E0F15020403040E1F700C0000017
S1130B1020924C0A30924D0A8091400A8160809361
S1130B20400A1093450483EF91E00197F1F700C068
S1130B3000008091003E811114C08091233E8130D9
S1130B4081F480911D3E90911E3E892B51F4809139
S1130B50213E813031F480911F3E9091203E459793
S1130B6040F7109346048091233E811196CDBBDC5F
S1130B709FE7EAE1F6E09150E040F040E1F700C081
S1130B800000F09246040093460487CD29813A81FF
S1130B904B815C81C701B60123D1CBCD28E02093E2
S1130BA04704E3EFF1E03197F1F700C00000209132
S1130BB0233E222309F4CDCD0197C8CD80E1E0EA9C
S1130BC0F2E9A5E0BEE301900D928A95E1F708955C
S1130BD0E0E0F4E084E0858392E0958322E42A95C2
S1130BE0F1F700C09683868382E48A95F1F700C00A
S1130BF00895E0E0F4E094E0968382E0868322E4C2
S1130C002A95F1F700C09583858382E48A95F1F7EC
S1130C1000C0089580E090E044E0E1E0F0E070E09E
S1130C2052E04093060422E42A95F1F700C09F01A4
S1130C30082E02C0220F331F0A94E2F7262337231B
S1130C40082E02C0359527950A94E2F72130310524
S1130C5019F45093050402C05093060432E43A9503
S1130C60F1F700C024E04093050432E43A95F1F72B
S1130C7000C0019688309105A1F62093060482E411
S1130C808A95F1F700C092E0909302042093050442
S1130C90E2E4EA95F1F700C080910804909301041E
S1130CA0E3EFF1E03197F1F700C000008695817021
S1130CB008950F931F93CF938C01C62F89DF6C2F58
S1130CC067706868C801A6DFC801CF911F910F91B2
S1130CD090CFE0E0F4E022E0218334E031833583F7
S1130CE0258366E0E6CFEF92FF920F931F93CF9395
S1130CF0DF93EC01E62EF42E122F6ADF60E4CE01BE
S1130D0089DFCE0176DFCE0163DF60ECCE0182DFC6
S1130D106E2DCE017FDF6F2DCE017CDF612FCE01E2
S1130D2079DF602FCE0176DFCE01DF91CF911F9165
S1130D300F91FF90EF905DCF0F93CF93DF93FC0162
S1130D409B01283E63E0360750F0C90168EE73E06A
S1130D508BD2CB016AE070E087D2808B04C0108A0A
S1130D602436310550F0C90164E670E07DD2CB0130
S1130D706AE070E079D2818B04C0118A2A3031058F
S1130D8050F0CAE0D0E0C901BE016ED2CB01BE0171
S1130D906BD2828B01C0128AC9016AE070E064D20E
S1130DA0838B93898289518940899F01290F311D41
S1130DB0DF01A80FB11DCD01EF01C50FD11DBF018A
S1130DC0640F711DD9010C91DC012C914881DB0168
S1130DD06C91CF0188DFDF91CF910F910895505826
S1130DE0BB27AA270E9407070C9458080E944A08A8
S1130DF038F00E94510820F039F49F3F19F426F48A
S1130E000C9447080EF4E095E7FB0C944108E92F95
S1130E100E94690858F3BA17620773078407950795
S1130E2020F079F4A6F50C948B080EF4E0950B2EC3
S1130E30BA2FA02D0B01B90190010C01CA01A00128
S1130E401124FF27591B99F0593F50F4503E68F183
S1130E501A16F040A22F232F342F4427585FF3CFC4
S1130E60469537952795A795F0405395C9F77EF495
S1130E701F16BA0B620B730B840BBAF09150A1F0DE
S1130E80FF0FBB1F661F771F881FC2F70EC0BA0F64
S1130E90621F731F841F48F4879577956795B795EC
S1130EA0F7959E3F08F0B0CF9395880F08F09927E7
S1130EB0EE0F9795879508950E9470070C94580833
S1130EC00E94510858F00E944A0840F029F45F3FFC
S1130ED029F00C94410851110C948C080C94470887
S1130EE00E94690868F39923B1F3552391F3951B84
S1130EF0550BBB27AA2762177307840738F09F5F37
S1130F005F4F220F331F441FAA1FA9F335D00E2EA3
S1130F103AF0E0E832D091505040E695001CCAF710
S1130F202BD0FE2F29D0660F771F881FBB1F2617D3
S1130F3037074807AB07B0E809F0BB0B802DBF01AA
S1130F40FF2793585F4F3AF09E3F510578F00C9479
S1130F5041080C948C085F3FE4F3983ED4F38695E3
S1130F6077956795B795F7959F5FC9F7880F911D9A
S1130F709695879597F90895E1E0660F771F881F86
S1130F80BB1F621773078407BA0720F0621B730B39
S1130F90840BBA0BEE1F88F7E09508950E94D507DD
S1130FA06894B1110C948C0808950E94710888F01B
S1130FB09F5798F0B92F9927B751B0F0E1F0660F19
S1130FC0771F881F991F1AF0BA95C9F714C0B1305A
S1130FD091F00E948B08B1E008950C948B08672F60
S1130FE0782F8827B85F39F0B93FCCF38695779589
S1130FF06795B395D9F73EF4909580957095619572
S11310007F4F8F4F9F4F0895E89409C097FB3EF49C
S113101090958095709561957F4F8F4F9F4F992341
S1131020A9F0F92F96E9BB279395F69587957795BF
S11310306795B795F111F8CFFAF4BB0F11F460FF7F
S11310401BC06F5F7F4F8F4F9F4F16C0882311F0D7
S113105096E911C0772321F09EE8872F762F05C0EB
S1131060662371F096E8862F70E060E02AF09A9586
S1131070660F771F881FDAF7880F9695879597F97B
S1131080089597F99F6780E870E060E008959FEF06
S113109080EC089500240A9416161706180609060B
S11310A0089500240A9412161306140605060895DA
S11310B0092E0394000C11F4882352F0BB0F40F462
S11310C0BF2B11F460FF04C06F5F7F4F8F4F9F4FA2
S11310D0089557FD9058440F551F59F05F3F71F024
S11310E04795880F97FB991F61F09F3F79F087958B
S11310F00895121613061406551FF2CF4695F1DF14
S113110008C0161617061806991FF1CF86957105A3
S1131110610508940895E894BB2766277727CB01D7
S113112097F908950E94040908F48FEF08950E9426
S1131130AA080C9458080E944A0838F00E945108E2
S113114020F0952311F00C9441080C9447081124C5
S11311500C948C080E94690870F3959FC1F3950F55
S113116050E0551F629FF001729FBB27F00DB11D27
S1131170639FAA27F00DB11DAA1F649F6627B00DB7
S1131180A11D661F829F2227B00DA11D621F739FA0
S1131190B00DA11D621F839FA00D611D221F749FAE
S11311A03327A00D611D231F849F600D211D822FF5
S11311B0762F6A2F11249F5750409AF0F1F088231C
S11311C04AF0EE0FFF1FBB1F661F771F881F915049
S11311D05040A9F79E3F510580F00C9441080C94AF
S11311E08C085F3FE4F3983ED4F386957795679532
S11311F0B795F795E7959F5FC1F7FE2B880F911D73
S11312009695879597F90895990F0008550FAA0B9D
S1131210E0E8FEEF16161706E807F907C0F0121605
S11312201306E407F50798F0621B730B840B950B08
S113123039F40A2661F0232B242B252B21F408955D
S11312400A2609F4A140A6958FEF811D811D0895FA
S1131250991B79E004C0991F961708F0961B881F04
S11312607A95C9F780950895AA1BBB1B51E107C065
S1131270AA1FBB1FA617B70710F0A61BB70B881F22
S1131280991F5A95A9F780959095BC01CD010895B1
S1131290EE0FFF1F0590F491E02D0994F894FFCF11
S11312A03F065B4F666D7D077F6F777C395E797192
S10F12B0080A0C0E1000400000010004AD
S10712BC01FFFF002B
S9030000FC
