S01400004C617468655F617474696E792E737265632A
S11300001AC03EC03DC08CC1C6C13AC039C038C058
S113001037C043C135C034C033C066C131C030C0FD
S11300202FC02EC02DC02CC02BC02AC029C028C070
S113003027C026C0870611241FBECFEFCDBFDFE344
S1130040DEBF1EE3A0E0BEE3E4EAF4E102C00590F3
S11300500D92A430B107D9F72EE3A4E0BEE301C0AA
S11300601D92A532B207E1F710E0CBE1D0E003C066
S11300702197FE0101DACA31D107D1F78CD202CA25
S1130080BFCFE0E2F4E081E08183868388E081836E
S113009085830895CF93DF9300D0CDB7DEB719825F
S11300A01A82E0E2F4E088E0868391E29A95F1F71F
S11300B00000858381E28A95F1F7000020E0203179
S11300C000F5E0E2F4E08085827090E095958795F4
S11300D0022E02C0880F991F0A94E2F749815A81BF
S11300E0842B952B89839A8381E0858391E29A9569
S11300F0F1F70000868381E28A95F1F700002F5F13
S1130100DECF89819A810F900F90DF91CF9108956E
S11301100F931F93CF93DF93BDDF83FB002700F979
S113012010E0BC016470772776956795602B712B7E
S1130130AC0142705527440F551F9B01242B352BCE
S1130140BC0161707727660F771F660F771F660FF4
S1130150771F622B732B87FB222720F9C22F20E005
S1130160D22FAC0140745527569547955295429528
S11301704F7045275F7045274C2B5D2BFC01E072C7
S1130180FF27F695E795F695E795F695E7959A0195
S11301902E2B3F2BAC014071552756954795422B8A
S11301A0532BFC01EE27F870EF2FFF27E695E69519
S11301B0E6959C0122273470232F33272695E22BC2
S11301C0F32BDC01AA27B270AA0FAB2FAA1FBB0B1B
S11301D0B1959F012A2B3B2BFC01EE27F170F6957C
S11301E0E795F295E295EF70EF27FF70EF27E22B8A
S11301F0F32BDC01AA27BB0FAA1FBB279C012227D4
S11302003074232F33272295269527702A2B3B2BD6
S1130210DC01AA27B072AB2FBB27A695A695A6959D
S11302202A2B3B2B88279071892F99278695282B79
S1130230392BCA01880F991F440F551F440F551FAE
S1130240440F551F480F591FA4E6AE9FC001AF9F2E
S1130250900D1124480F591F640F751F48EE53E089
S1130260249FC001259F900D349F900D1124860F6B
S1130270971FDF91CF911F910F910895019761F41A
S11302806F3F7F4F49F480E1E8E8F4E9A5E0BEE37D
S113029001900D928A95E1F708951F920F920FB67F
S11302A00F9211248F939F93EF93FF9380911D3EA0
S11302B090911E3E892B31F4E0E0FAE082858D7F37
S11302C0828709C080911D3E90911E3E01978093C4
S11302D01D3E90931E3EFF91EF919F918F910F9041
S11302E00FBE0F901F9018951F920F920FB60F928A
S11302F011248F93F89481E08093460A80934704F5
S113030080911C3E882329F080911C3E815080936B
S11303101C3E78948F910F900FBE0F901F901895EC
S11303201F920F920FB60F9211248F939F93EF9306
S1130330FF93F894E0E0F4E08FEF81878085881FD5
S11303408827881F8093223E8085807490E0082E41
S1130350892F000C881F990B000C881F991F9091FE
S1130360223E892B8093233E8085807190E0959571
S11303708795959587959595879595958795809378
S1130380213E7894FF91EF919F918F910F900FBE32
S11303900F901F9018951F920F920FB60F92112471
S11303A08F939F93EF93FF93F894E0E2F4E08FEF41
S11303B081878085847090E095958795959587953C
S11303C08093213E7894FF91EF919F918F910F90AC
S11303D00FBE0F901F90189590E088ED84BF909306
S11303E061000895E0EAF0E080E380838181826027
S11303F08183E0E0F6E084E0808383E081831282FD
S11304008283868381858160818780818160808306
S11304100895E0E0FAE091E093838FEF87A380E80A
S113042081A711A280E1818386858160868785E02A
S11304308093193EA091193E2081B0E0A856BB4696
S11304408C91822B8083E0E4FAE014861586108276
S11304501182808581608087958308959091080634
S113046090FDFCCFE0E0F6E08683808581608087A4
S11304708091080680FDFCCF8091100690911106B2
S11304809695879596958795969587959927089536
S1130490CF92DF92EF92FF92CF93DF93EC01E09142
S11304A0193EF0E0EE0FFF1FE456FB4660817181B8
S11304B080E090E0B1D66B017C01BE0180E090E069
S11304C0ABD69B01AC01C701B60139D720E030E0BF
S11304D048EC54E434D79B01AC0168E17DE08FE83B
S11304E09EE4F2D56AD6CB01DF91CF91FF90EF90D5
S11304F0DF90CF9008952FEF8091243E281760F16C
S1130500E0E0FAE027A3822F869581A78091013E3F
S11305109091023E80931D3E90931E3E82858260A0
S1130520828780911D3E90911E3E892B31F08091EF
S1130530233E813021F080E003C080E001C081E0EF
S11305408111EFCF8091233E811104C082E080931A
S1130550460408952150D0CF08952091243E21349B
S1130560C8F4E0E0FAE027A3822F869581A7809162
S1130570013E9091023E80931D3E90931E3E8285E3
S11305808260828780911D3E90911E3E892BD1F717
S11305902F5FE5CF0895CF93DF93CDB7DEB72697CE
S11305A0CDBFDEBF19DFE0E0F4E089E8868B878BFE
S11305B080933204848BE0E4F4E088E081838683D2
S11305C0A0E0B2E012968C93129781E08183868337
S11305D013968C9380E8818B92E091839683828B2F
S11305E084E081838683FEDE85E09EE315D484E087
S11305F09EE347DD8091003E8130B9F58091080487
S113060086FD0EC080910804882364F0809128043C
S113061082FD0AC08091080484FF08C081E007C0FD
S113062081E005C081E003C081E001C080E0811168
S1130630E5CF1092003E82E08093450480E087304D
S113064070F498E0909347042FE73AE146E0215094
S113065030404040E1F700C000008F5FF0CFE0E49D
S1130660F4E088E0868382E08683D3DE7894809108
S1130670003E81110AC08091233E811108C08091FF
S1130680213E882331F010E005C010E003C010E0E3
S113069001C011E0112309F421C1E0E0FAE08081F6
S11306A08E7F8083A0E4BAE08C918E7F8C9383E06C
S11306B08093193EA091193E9081B0E0A856BB46A4
S11306C08C91892B808380E181838FEF87A390E8CD
S11306D091A72FEF3FEF20931D3E30931E3E809352
S11306E01C3E8091003E81110AC08091233E8111FD
S11306F008C08091213E882331F080E005C080E06D
S113070003C080E001C0812F882309F4B0CF84E0C6
S11307109EE3FEDC80931A3E90931B3E83E09EDEB4
S113072080958093243E8091243E9BEA899F812D6D
S11307301124869586958F5F8093243E8091243E74
S11307408B3098F42091243E80EB94E054E6259F6E
S113075080199109112480931F3E9093203E00E05C
S1130760EE24EA94FE2CD12C12C08091243E90E019
S11307709C01220F331F820F931F28E830E0F901F8
S1130780E81BF90BE0931F3EF093203EE8CF0430C2
S113079008F05BC0E02FF0E0EE0FFF1FE456FB46CD
S11307A06081718180E090E037D54B015C016091FC
S11307B01F3E7091203E80E090E02ED5A50194016B
S11307C0BED520E030E048EC54E4B9D59B01AC013F
S11307D068E17DE08FE89EE477D4EFD4C62E70E024
S11307E080E090E019D5A5019401A9D520E030E07E
S11307F048EC54E4A4D59B01AC0168E17DE08FE8AA
S11308009EE462D4D3D420911F3E3091203EA901AE
S1130810461B570B9A0122F422273327241B350B3E
S11308202E153F0580F420911F3E3091203EC901D2
S1130830861B970B7C0122F4EE24FF24E81AF90AA4
S11308400093193EDC2C0F5FA2CFD092243EE0919E
S1130850193EF0E0EE0FFF1FE456FB466081718104
S11308600091243E80E090E0D7D46B017C01602F9E
S113087070E080E090E0D2D49B01AC01C701B601E6
S11308805ED520E030E046E954E459D59B01AC0143
S113089068E17DE08FE89EE417D420E030E040E298
S11308A051E44DD58AD46093013E7093023EF8948E
S11308B0A0E0BAE01C92E091193E9C91F0E0E85669
S11308C0FB468081892B8C9378948091243E90E020
S11308D0DFDDBC0185E09EE3D4D203CF8091003EEE
S11308E081110CC08091233E813041F48091213EDE
S11308F0811104C08091223E8823C1F08091003E82
S1130900811117C08091233E8130A9F48091213E4A
S1130910811113C08091223E813089F480911F3E61
S11309209091203E459768F0F12E0DC0FF24F3947A
S11309300AC0F12E08C0F12E06C0F12E04C0F12E1B
S113094002C0FF24F394FF2009F444C0FFE72AE126
S113095036E0F15020403040E1F700C00000009143
S1130960223E80911D3E90911E3E892B79F0E0E05D
S1130970FAE080818160808382E08093450483EF84
S113098091E00197F1F700C00000B5DD8091003ED1
S113099081110AC08091233E813041F48091213E2F
S11309A0882331F0812F05C0812F03C0812F01C01E
S11309B08F2D8111EBCF9091233E911103C0011132
S11309C001C08F2D882309F489CFC7DD82E080938D
S11309D0460484CF8091003E81110AC08091233E59
S11309E0811108C08091213E813031F00F2D05C066
S11309F00F2D03C00F2D01C001E00023A1F19FE7DB
S1130A00EAE1F6E09150E040F040E1F700C0000078
S1130A10E0E4FAE080E293E0848795878081816056
S1130A20808384E08093450483EF91E00197F1F79C
S1130A3000C000008091003E81110AC08091233ED5
S1130A40811108C08091213E813031F08F2D05C085
S1130A508F2D03C08F2D01C0802F8111EBCF84E037
S1130A6080934604B7CF8091003E811116C08091D7
S1130A70233E8130A1F480911D3E90911E3E892B2E
S1130A8081F48091213E813071F480911F3E9091D8
S1130A90203E459750F4102F09C0102F07C0102F87
S1130AA005C0102F03C0102F01C011E0112309F459
S1130AB055C09FE7EAE1F6E09150E040F040E1F7ED
S1130AC000C00000E0E4FAE080E89EE384879587B4
S1130AD080818160808384E08093450483EF91E08A
S1130AE00197F1F700C000008091003E811116C00B
S1130AF08091233E8130A1F480911D3E90911E3E51
S1130B00892B81F48091213E813071F480911F3EC4
S1130B109091203E459750F4802F09C0802F07C044
S1130B20802F05C0802F03C0802F01C0812F811129
S1130B30DBCF84E0809346048091233E811193CFE0
S1130B400CDD9FE7EAE1F6E09150E040F040E1F788
S1130B5000C0000082E08093460485CF8091003E6F
S1130B60811110C08091233E813071F48091213E27
S1130B70813061F480911F3E9091203E459740F072
S1130B80012F07C0012F05C0012F03C0012F01C091
S1130B9001E0002309F46BCD2FE73AE146E0215050
S1130BA030404040E1F700C00000E0E0FAE080811E
S1130BB08E7F8083A0E4BAE08C918E7F8C93118227
S1130BC060911A3E70911B3E80E090E025D324EDA5
S1130BD03FE746E559E378D220E030E04AE754E4C1
S1130BE073D29B01AC0160E070E088EC94E46CD2B9
S1130BF06B017C0169837A838B839C83DED26D8352
S1130C007E83E0E4F4E082E0858384E0858383EFFF
S1130C1091E00197F1F700C000008091003E81113E
S1130C2010C08091233E813071F48091213E813047
S1130C3061F480911F3E9091203E459740F0812FB2
S1130C4007C0812F05C0812F03C0812F01C0802FD1
S1130C50882309F455C029813A814B815C81C701FD
S1130C60B601C6D120E030E040E85FE363D3181654
S1130C70C4F429813A814B815C81C701B601B8D1A2
S1130C804B015C016D817E8180E090E0C5D29B01C7
S1130C90AC01C501B401ABD169837A838B839C8396
S1130CA00BC029813A814B815C81C701B601A0D177
S1130CB069837A838B839C8369817A818B819C810C
S1130CC07CD26D837E838D819E81009779F028E0AC
S1130CD020934704E9EFF0E03197F1F700C00000FA
S1130CE02091233E222311F00197EFCF81E08093DE
S1130CF0470489EF90E00197F1F700C000008DCF21
S1130D00E0E4F4E082E0868384E0868327CF6FEF1B
S1130D107FEF81E090E0B2DA0895E0E0F4E084E06F
S1130D20858392E0958322E42A95F1F700C09683A7
S1130D30868382E48A95F1F700C00895E0E0F4E048
S1130D4094E0968382E0868322E42A95F1F700C03A
S1130D509583858382E48A95F1F700C0089520E0A5
S1130D60283078F584E08093060482E48A95F1F7CC
S1130D7000C081E090E0022E02C0880F991F0A94FF
S1130D80E2F7462F50E084239523022E02C0959566
S1130D9087950A94E2F7019721F482E08093050491
S1130DA003C082E08093060492E49A95F1F700C0B0
S1130DB084E080930504E2E4EA95F1F700C02F5F34
S1130DC0CFCFE0E0F4E084E0868392E49A95F1F7F3
S1130DD000C092E09283858382E48A95F1F700C093
S1130DE08085869581709183E3EFF1E03197F1F787
S1130DF000C0000008950F931F93CF938C01C62F5A
S1130E008CDF6C2F67706868C801A9DFC80196DFA2
S1130E10CF911F910F910895E0E0F4E022E0218347
S1130E2034E031833583258366E0E5DF0895EF926E
S1130E30FF920F931F93CF93DF93EC01E62EF42ED2
S1130E40122F6BDF60E4CE018ADFCE0177DFCE01A3
S1130E5064DF60ECCE0183DF6E2DCE0180DF6F2D69
S1130E60CE017DDF612FCE017ADF602FCE0177DFE7
S1130E70CE0164DFDF91CF911F910F91FF90EF902E
S1130E8008950F931F93FC01AB01683E23E07207A2
S1130E9058F19B01369527953695279536952795D4
S1130EA0A5ECB0E2DDD28C01129502950F700127FA
S1130EB01F7001279801ADECBCECD2D296958795B2
S1130EC096958795969587959C01220F331F880FD9
S1130ED0991F880F991F880F991F820F931F9801DC
S1130EE0281B390B208B01C0108A4436510528F188
S1130EF09A013695279536952795ABE7B4E1B0D29C
S1130F008C01169507959801ADECBCECA9D2969589
S1130F10879596958795969587959C01220F331F03
S1130F20880F991F880F991F880F991F820F931F8D
S1130F309801281B390B218B01C0118A4A305105B5
S1130F4018F19A01ADECBCEC8BD28C011695079587
S1130F501695079516950795980182D296958795CB
S1130F6096958795969587959C01220F331F880F38
S1130F70991F880F991F880F991F820F931F98013B
S1130F80281B390B228B01C0128A9A01ADECBCECF0
S1130F9067D29695879596958795969587959C01A2
S1130FA0220F331F880F991F880F991F880F991FCD
S1130FB0820F931F9A01281B390B238B8389DF012E
S1130FC0A80FB11D0C918289DF01A80FB11D2C91CE
S1130FD08189DF01A80FB11D4C918089DF01A80F21
S1130FE0B11D6C91CF0123DF1F910F9108955058CB
S1130FF0BB27AA270E940F080C9460090E9452097B
S113100038F00E94590920F039F49F3F19F426F46E
S11310100C944F090EF4E095E7FB0C944909E92F71
S11310200E94710958F3BA1762077307840795077A
S113103020F079F4A6F50C9493090EF4E0950B2EA8
S1131040BA2FA02D0B01B90190010C01CA01A00116
S11310501124FF27591B99F0593F50F4503E68F171
S11310601A16F040A22F232F342F4427585FF3CFB2
S1131070469537952795A795F0405395C9F77EF483
S11310801F16BA0B620B730B840BBAF09150A1F0CC
S1131090FF0FBB1F661F771F881FC2F70EC0BA0F52
S11310A0621F731F841F48F4879577956795B795DA
S11310B0F7959E3F08F0B0CF9395880F08F09927D5
S11310C0EE0F9795879508950E9478080C9460090F
S11310D00E94590958F00E94520940F029F45F3FD8
S11310E029F00C94490951110C9494090C944F095A
S11310F00E94710968F39923B1F3552391F3951B69
S1131100550BBB27AA2762177307840738F09F5F24
S11311105F4F220F331F441FAA1FA9F335D00E2E91
S11311203AF0E0E832D091505040E695001CCAF7FE
S11311302BD0FE2F29D0660F771F881FBB1F2617C1
S113114037074807AB07B0E809F0BB0B802DBF0198
S1131150FF2793585F4F3AF09E3F510578F00C9467
S113116049090C9494095F3FE4F3983ED4F38695BF
S113117077956795B795F7959F5FC9F7880F911D88
S11311809695879597F90895E1E0660F771F881F74
S1131190BB1F621773078407BA0720F0621B730B27
S11311A0840BBA0BEE1F88F7E09508950E94DD08C2
S11311B06894B1110C94940908950E94790988F0F7
S11311C09F5798F0B92F9927B751B0F0E1F0660F07
S11311D0771F881F991F1AF0BA95C9F714C0B13048
S11311E091F00E949309B1E008950C949309672F3C
S11311F0782F8827B85F39F0B93FCCF38695779577
S11312006795B395D9F73EF490958095709561955F
S11312107F4F8F4F9F4F0895E89409C097FB3EF48A
S113122090958095709561957F4F8F4F9F4F99232F
S1131230A9F0F92F96E9BB279395F69587957795AD
S11312406795B795F111F8CFFAF4BB0F11F460FF6D
S11312501BC06F5F7F4F8F4F9F4F16C0882311F0C5
S113126096E911C0772321F09EE8872F762F05C0D9
S1131270662371F096E8862F70E060E02AF09A9574
S1131280660F771F881FDAF7880F9695879597F969
S1131290089597F99F6780E870E060E008959FEFF4
S11312A080EC089500240A941616170618060906F9
S11312B0089500240A9412161306140605060895C8
S11312C0092E0394000C11F4882352F0BB0F40F450
S11312D0BF2B11F460FF04C06F5F7F4F8F4F9F4F90
S11312E0089557FD9058440F551F59F05F3F71F012
S11312F04795880F97FB991F61F09F3F79F0879579
S11313000895121613061406551FF2CF4695F1DF01
S113131008C0161617061806991FF1CF8695710591
S1131320610508940895E894BB2766277727CB01C5
S113133097F908950E940C0A08F48FEF08950E940B
S1131340B2090C9460090E94520938F00E945909AC
S113135020F0952311F00C9449090C944F091124A1
S11313600C9494090E94710970F3959FC1F3950F31
S113137050E0551F629FF001729FBB27F00DB11D15
S1131380639FAA27F00DB11DAA1F649F6627B00DA5
S1131390A11D661F829F2227B00DA11D621F739F8E
S11313A0B00DA11D621F839FA00D611D221F749F9C
S11313B03327A00D611D231F849F600D211D822FE3
S11313C0762F6A2F11249F5750409AF0F1F088230A
S11313D04AF0EE0FFF1FBB1F661F771F881F915037
S11313E05040A9F79E3F510580F00C9449090C9494
S11313F094095F3FE4F3983ED4F386957795679517
S1131400B795F795E7959F5FC1F7FE2B880F911D60
S11314109695879597F90895990F0008550FAA0B8B
S1131420E0E8FEEF16161706E807F907C0F01216F3
S11314301306E407F50798F0621B730B840B950BF6
S113144039F40A2661F0232B242B252B21F408954B
S11314500A2609F4A140A6958FEF811D811D0895E8
S1131460A29FB001B39FC001A39F01D0B29F700D92
S1131470811D1124911D0895EE0FFF1F0590F49115
S10B1480E02D0994F894FFCF5C
S11314883F065B4F666D7D077F6F777C395E7971A8
S10F1498080A0C0E1000400000010004C3
S10714A401FFFF0041
S9030000FC
