S01400004C617468655F617474696E792E737265632A
S11300001AC03EC03DC08CC1C6C13AC039C038C058
S113001037C043C135C034C033C066C131C030C0FD
S11300202FC02EC02DC02CC02BC02AC029C028C070
S113003027C026C0590611241FBECFEFCDBFDFE372
S1130040DEBF1EE3A0E0BEE3E4E5F4E102C00590F8
S11300500D92A430B107D9F72EE3A4E0BEE301C0AA
S11300601D92A532B207E1F710E0CBE1D0E003C066
S11300702197FE01D3D9CA31D107D1F76DD2D4C9A2
S1130080BFCFE0E2F4E081E08183868388E081836E
S113009085830895CF93DF9300D0CDB7DEB719825F
S11300A01A82E0E2F4E088E086839AE19A95F1F717
S11300B000C085838AE18A95F1F700C020E02031F1
S11300C000F5E0E2F4E08085827090E095958795F4
S11300D0022E02C0880F991F0A94E2F749815A81BF
S11300E0842B952B89839A8381E085839AE19A9561
S11300F0F1F700C086838AE18A95F1F700C02F5F8B
S1130100DECF89819A810F900F90DF91CF9108956E
S11301100F931F93CF93DF93BDDF83FB002700F979
S113012010E0BC016470772776956795602B712B7E
S1130130AC0142705527440F551F9B01242B352BCE
S1130140BC0161707727660F771F660F771F660FF4
S1130150771F622B732B87FB222720F9C22F20E005
S1130160D22FAC0140745527569547955295429528
S11301704F7045275F7045274C2B5D2BFC01E072C7
S1130180FF27F695E795F695E795F695E7959A0195
S11301902E2B3F2BAC014071552756954795422B8A
S11301A0532BFC01EE27F870EF2FFF27E695E69519
S11301B0E6959C0122273470232F33272695E22BC2
S11301C0F32BDC01AA27B270AA0FAB2FAA1FBB0B1B
S11301D0B1959F012A2B3B2BFC01EE27F170F6957C
S11301E0E795F295E295EF70EF27FF70EF27E22B8A
S11301F0F32BDC01AA27BB0FAA1FBB279C012227D4
S11302003074232F33272295269527702A2B3B2BD6
S1130210DC01AA27B072AB2FBB27A695A695A6959D
S11302202A2B3B2B88279071892F99278695282B79
S1130230392BCA01880F991F440F551F440F551FAE
S1130240440F551F480F591FA4E6AE9FC001AF9F2E
S1130250900D1124480F591F640F751F48EE53E089
S1130260249FC001259F900D349F900D1124860F6B
S1130270971FDF91CF911F910F910895019761F41A
S11302806F3F7F4F49F480E1ECE2F4E9A5E0BEE37F
S113029001900D928A95E1F708951F920F920FB67F
S11302A00F9211248F939F93EF93FF9380911D3EA0
S11302B090911E3E892B31F4E0E0FAE082858D7F37
S11302C0828709C080911D3E90911E3E01978093C4
S11302D01D3E90931E3EFF91EF919F918F910F9041
S11302E00FBE0F901F9018951F920F920FB60F928A
S11302F011248F93F89481E08093460A80934704F5
S113030080911C3E882329F080911C3E815080936B
S11303101C3E78948F910F900FBE0F901F901895EC
S11303201F920F920FB60F9211248F939F93EF9306
S1130330FF93F894E0E0F4E08FEF81878085881FD5
S11303408827881F8093223E8085807490E0082E41
S1130350892F000C881F990B000C881F991F9091FE
S1130360223E892B8093233E8085807190E0959571
S11303708795959587959595879595958795809378
S1130380213E7894FF91EF919F918F910F900FBE32
S11303900F901F9018951F920F920FB60F92112471
S11303A08F939F93EF93FF93F894E0E2F4E08FEF41
S11303B081878085847090E095958795959587953C
S11303C08093213E7894FF91EF919F918F910F90AC
S11303D00FBE0F901F901895E0EAF0E080E3808351
S11303E0818182608183E0E0F6E084E0808383E0C1
S11303F08183128282838683818581608187808163
S1130400816080830895E0E0FAE091E093838FEFC8
S113041087A380E881A711A280E1818385E080938E
S1130420193EA091193E2081B0E0A45CBB468C919A
S1130430822B8083E0E4FAE0148615861082118210
S1130440958308959091080690FDFCCFE0E0F6E0D6
S113045086838085816080878091080680FDFCCF3B
S1130460809110069091110696958795969587959B
S11304709695879599270895CF92DF92EF92FF92F0
S1130480CF93E091193EF0E0EE0FFF1FEC5BFB46CB
S113049060817181C091243E80E090E08FD66B0131
S11304A07C016C2F70E080E090E088D69B01AC0169
S11304B0C701B60116D720E030E048EC54E411D768
S11304C09B01AC0160E27CEB8EE39DE4CFD547D683
S11304D0CB01CF91FF90EF90DF90CF9008952FEF55
S11304E08091243E2817C8F0E0E0FAE027A3822F89
S11304F0869581A78091003E9091013E80931D3E98
S113050090931E3E82858260828780911D3E9091E9
S11305101E3E892BD1F72150E3CF08952091243E2C
S11305202134C8F4E0E0FAE027A3822F869581A75E
S11305308091003E9091013E80931D3E90931E3E1B
S113054082858260828780911D3E90911E3E892B18
S1130550D1F72F5FE5CF0895CF93DF93CDB7DEB703
S11305602697CDBFDEBFE0E0F4E089E8868B878B79
S113057080933204848BE0E4F4E088E08183868312
S1130580A0E0B2E012968C93129781E08183868377
S113059013968C9380E8818B92E091839683828B6F
S11305A084E08183868318DF85E09EE307D484E0BA
S11305B09EE367DD8091023E8130B9F580910804A5
S11305C086FD0EC080910804882364F0809128047D
S11305D082FD0AC08091080484FF08C081E007C03E
S11305E081E005C081E003C081E001C080E08111A9
S11305F0E5CF1092023E82E08093450480E087308C
S113060070F498E0909347042FEF30E742E02150D4
S113061030404040E1F700C000008F5FF0CFE0E4DD
S1130620F4E088E0868382E08683EDDE789480912E
S1130630023E81110AC08091233E811108C080913D
S1130640213E882331F000E005C000E003C000E053
S113065001C001E0002309F444C1E0E0FAE0808134
S11306608E7F808380E49AE0DC012C912E7F2C9392
S113067025E02093193EA091193E3081B0E0A45C9E
S1130680BB462C91232B208320E121832FEF27A32A
S113069030E831A740E253E0FC01448755878FEFEF
S11306A09FEF80931D3E90931E3E20931C3E8091AD
S11306B0023E81110AC08091233E811108C08091BD
S11306C0213E882331F080E005C080E003C080E053
S11306D001C0802F882309F4AACF84E09EE318DDAB
S11306E080931A3E90931B3E83E0ACDE809580930A
S11306F0243E8091243E9BEA899F812D1124869576
S113070086958F5F8093243E8091243E8B3098F4AD
S11307102091243E80EB94E0F4E62F9F8019910908
S1130720112480931F3E9093203E10E0EE24EA941F
S1130730FE2CD12C12C08091243E90E09C01220F0B
S1130740331F820F931F28E830E0A901481B590B7F
S113075040931F3E5093203EE8CF183008F05BC012
S1130760E12FF0E0EE0FFF1FEC5BFB46608171812F
S113077080E090E023D54B015C0160911F3E7091B5
S1130780203E80E090E01AD5A5019401AAD520E08E
S113079030E048EC54E4A5D59B01AC0160E27CEB6D
S11307A08EE39DE463D4DBD4C62E70E080E090E059
S11307B005D5A501940195D520E030E048EC54E43A
S11307C090D59B01AC0160E27CEB8EE39DE44ED4BA
S11307D0BFD420911F3E3091203EA901461B570BE8
S11307E09A0122F422273327241B350B2E153F05AB
S11307F080F420911F3E3091203EC901861B970B47
S11308007C0122F4EE24FF24E81AF90A1093193E1D
S1130810DC2C1F5FA2CFD092243EF894A0E0BAE073
S11308201C92E091193E9C91F0E0E45CFB468081CF
S1130830892B8C9378941FEFC12CD12C7601809155
S1130840243E181770F0612F70E080E090E0B8D477
S11308509B01AC01C701B6019DD36B017C01115012
S1130860EECF80911F3E9091203E843F914048F00E
S11308700F2E812C912CF0EFAF2EF1E4BF2EF02D32
S113088005C0812C912C54016894B6F8E091193E6E
S1130890F0E0EE0FFF1FEC5BFB466081718180E0AE
S11308A090E08CD4A70196011CD520E030E040E212
S11308B051E417D59B01AC0160E27CEB8EE39DE42F
S11308C0D5D39B01AC01C501B4010BD548D46093C9
S11308D0003E7093013ED0DDBC0185E09EE3A3D2CF
S11308E0E6CE8091023E81110CC08091233E81307E
S11308F041F48091213E811104C08091223E8823DD
S1130900C1F08091023E811116C08091233E813056
S1130910A1F48091213E811112C08091223E813048
S113092081F480911F3E9091203E459760F0102FF6
S11309300BC011E009C0102F07C0102F05C0102FE5
S113094003C0102F01C011E01123C9F1F090223E21
S113095080911D3E90911E3E892B79F0E0E0FAE0F3
S113096080818160808382E0809345048FE891E0F8
S11309700197F1F700C00000B2DD8091023E8111C1
S11309800AC08091233E813041F48091213E882326
S113099031F0802F05C0802F03C0802F01C0812F2C
S11309A08111EBCF9091233E911103C0F11001C04E
S11309B0812F8111B3DD82E08093460492CF809130
S11309C0023E81110AC08091233E811108C08091AA
S11309D0213E813031F0012F05C0012F03C0012FCA
S11309E001C001E0002339F1E0E4FAE08081816094
S11309F0808384E080934504AFE8B1E01197F1F778
S1130A0000C000008091023E81110AC08091233E03
S1130A10811108C08091213E813031F0812F05C0C1
S1130A20812F03C0812F01C0802F8111EBCF84E07F
S1130A3080934604C4CF8091023E811116C08091F8
S1130A40233E8130A1F480911D3E90911E3E892B5E
S1130A5081F48091213E813071F480911F3E909108
S1130A60203E459750F4102F09C0102F07C0102FB7
S1130A7005C0102F03C0102F01C011E0112309F489
S1130A8048C0E0E4FAE080818160808384E0809360
S1130A904504EFE8F1E03197F1F700C000008091E0
S1130AA0023E811116C08091233E8130A1F48091D1
S1130AB01D3E90911E3E892B81F48091213E813010
S1130AC071F480911F3E9091203E459750F4802F01
S1130AD009C0802F07C0802F05C0802F03C0802F3E
S1130AE001C0812F8111DBCF84E080934604809183
S1130AF0233E8111A0CF12DDFFEF21EE34E0F1504F
S1130B0020403040E1F700C0000082E080934604BA
S1130B1092CF8091023E811110C08091233E81309A
S1130B2071F48091213E813061F480911F3E909157
S1130B30203E459740F0012F07C0012F05C0012F2B
S1130B4003C0012F01C001E0002309F470CDE0E0EF
S1130B50FAE080818E7F8083A0E4BAE08C918E7F5E
S1130B608C93118260911A3E70911B3E80E090E05C
S1130B7025D324ED3FE746E559E378D220E030E081
S1130B804AE754E473D29B01AC0160E070E088EC66
S1130B9094E46CD26B017C0169837A838B839C839C
S1130BA0DED26D837E83E0E4F4E082E0858384E03A
S1130BB085838FE891E00197F1F700C000008091F0
S1130BC0023E811110C08091233E813071F48091E6
S1130BD0213E813061F480911F3E9091203E4597E3
S1130BE040F0812F07C0812F05C0812F03C0812FC2
S1130BF001C0802F882309F455C029813A814B8193
S1130C005C81C701B601C6D120E030E040E85FE373
S1130C1063D31816C4F429813A814B815C81C701DE
S1130C20B601B8D14B015C016D817E8180E090E01A
S1130C30C5D29B01AC01C501B401ABD169837A83F0
S1130C408B839C830BC029813A814B815C81C701D2
S1130C50B601A0D169837A838B839C8369817A816D
S1130C608B819C817CD26D837E838D819E81009754
S1130C7079F028E020934704A7ECB0E01197F1F74E
S1130C8000C000002091233E222311F00197EFCFF2
S1130C9081E080934704E7ECF0E03197F1F700C07E
S1130CA000008DCFE0E4F4E082E0868384E0868374
S1130CB030CF6FEF7FEF81E090E0E0DA0895E0E07D
S1130CC0F4E084E0858392E0958325E32A95F1F7A7
S1130CD000009683868385E38A95F1F700000895E2
S1130CE0E0E0F4E094E0968382E0868325E32A95AD
S1130CF0F1F700009583858385E38A95F1F7000079
S1130D00089520E0283078F584E08093060485E394
S1130D108A95F1F7000081E090E0022E02C0880F6E
S1130D20991F0A94E2F7462F50E084239523022E5C
S1130D3002C0959587950A94E2F7019721F482E021
S1130D408093050403C082E08093060495E39A959A
S1130D50F1F7000084E080930504E5E3EA95F1F7F8
S1130D6000002F5FCFCFE0E0F4E084E0868395E3DA
S1130D709A95F1F7000092E09283858385E38A9542
S1130D80F1F700008085869581709183EFE8F1E0AA
S1130D903197F1F700C0000008950F931F93CF938C
S1130DA08C01C62F8CDF6C2F67706868C801A9DFBF
S1130DB0C80196DFCF911F910F910895E0E0F4E010
S1130DC022E0218334E031833583258366E0E5DF47
S1130DD00895EF92FF920F931F93CF93DF93EC014B
S1130DE0E62EF42E122F6BDF60E4CE018ADFCE01F3
S1130DF077DFCE0164DF60ECCE0183DF6E2DCE01A0
S1130E0080DF6F2DCE017DDF612FCE017ADF602F71
S1130E10CE0177DFCE0164DFDF91CF911F910F9177
S1130E20FF90EF9008950F931F93FC01AB01683E70
S1130E3023E0720758F19B0136952795369527953F
S1130E4036952795A5ECB0E2DDD28C01129502957A
S1130E500F7001271F7001279801ADECBCECD2D2B2
S1130E609695879596958795969587959C01220FDB
S1130E70331F880F991F880F991F880F991F820F9E
S1130E80931F9801281B390B208B01C0108A44360C
S1130E90510528F19A013695279536952795ABE7A4
S1130EA0B4E1B0D28C01169507959801ADECBCEC79
S1130EB0A9D29695879596958795969587959C0141
S1130EC0220F331F880F991F880F991F880F991FAE
S1130ED0820F931F9801281B390B218B01C0118AA3
S1130EE04A30510518F19A01ADECBCEC8BD28C015F
S1130EF0169507951695079516950795980182D22C
S1130F009695879596958795969587959C01220F3A
S1130F10331F880F991F880F991F880F991F820FFD
S1130F20931F9801281B390B228B01C0128A9A0146
S1130F30ADECBCEC67D2969587959695879596957A
S1130F4087959C01220F331F880F991F880F991FC3
S1130F50880F991F820F931F9A01281B390B238B2B
S1130F608389DF01A80FB11D0C918289DF01A80FCD
S1130F70B11D2C918189DF01A80FB11D4C9180898D
S1130F80DF01A80FB11D6C91CF0123DF1F910F91D9
S1130F9008955058BB27AA270E94E1070C943209F0
S1130FA00E94240938F00E942B0920F039F49F3F55
S1130FB019F426F40C9421090EF4E095E7FB0C9443
S1130FC01B09E92F0E94430958F3BA1762077307F4
S1130FD08407950720F079F4A6F50C9465090EF4BE
S1130FE0E0950B2EBA2FA02D0B01B90190010C0135
S1130FF0CA01A0011124FF27591B99F0593F50F44D
S1131000503E68F11A16F040A22F232F342F4427A4
S1131010585FF3CF469537952795A795F04053959C
S1131020C9F77EF41F16BA0B620B730B840BBAF06C
S11310309150A1F0FF0FBB1F661F771F881FC2F7D7
S11310400EC0BA0F621F731F841F48F487957795EB
S11310506795B795F7959E3F08F0B0CF9395880FA5
S113106008F09927EE0F9795879508950E944A08EE
S11310700C9432090E942B0958F00E94240940F074
S113108029F45F3F29F00C941B0951110C94660953
S11310900C9421090E94430968F39923B1F3552361
S11310A091F3951B550BBB27AA2762177307840777
S11310B038F09F5F5F4F220F331F441FAA1FA9F30D
S11310C035D00E2E3AF0E0E832D091505040E695FB
S11310D0001CCAF72BD0FE2F29D0660F771F881F5C
S11310E0BB1F261737074807AB07B0E809F0BB0B4F
S11310F0802DBF01FF2793585F4F3AF09E3F510563
S113110078F00C941B090C9466095F3FE4F3983E55
S1131110D4F3869577956795B795F7959F5FC9F74B
S1131120880F911D9695879597F90895E1E0660FCC
S1131130771F881FBB1F621773078407BA0720F045
S1131140621B730B840BBA0BEE1F88F7E0950895AE
S11311500E94AF086894B1110C94660908950E9426
S11311604B0988F09F5798F0B92F9927B751B0F0E1
S1131170E1F0660F771F881F991F1AF0BA95C9F717
S113118014C0B13091F00E946509B1E008950C9447
S11311906509672F782F8827B85F39F0B93FCCF3FA
S11311A0869577956795B395D9F73EF49095809594
S11311B0709561957F4F8F4F9F4F0895E89409C0B4
S11311C097FB3EF490958095709561957F4F8F4F76
S11311D09F4F9923A9F0F92F96E9BB279395F6958C
S11311E0879577956795B795F111F8CFFAF4BB0F0A
S11311F011F460FF1BC06F5F7F4F8F4F9F4F16C06E
S1131200882311F096E911C0772321F09EE8872FF7
S1131210762F05C0662371F096E8862F70E060E0B3
S11312202AF09A95660F771F881FDAF7880F96952C
S1131230879597F9089597F99F6780E870E060E0D3
S113124008959FEF80EC089500240A94161617065B
S113125018060906089500240A94121613061406A3
S113126005060895092E0394000C11F4882352F006
S1131270BB0F40F4BF2B11F460FF04C06F5F7F4FBE
S11312808F4F9F4F089557FD9058440F551F59F0A5
S11312905F3F71F04795880F97FB991F61F09F3F5F
S11312A079F087950895121613061406551FF2CF88
S11312B04695F1DF08C0161617061806991FF1CFD8
S11312C086957105610508940895E894BB276627FF
S11312D07727CB0197F908950E94DE0908F48FEF70
S11312E008950E9484090C9432090E94240938F05C
S11312F00E942B0920F0952311F00C941B090C94E7
S1131300210911240C9466090E94430970F3959FE6
S1131310C1F3950F50E0551F629FF001729FBB27E8
S1131320F00DB11D639FAA27F00DB11DAA1F649F84
S11313306627B00DA11D661F829F2227B00DA11D37
S1131340621F739FB00DA11D621F839FA00D611DBD
S1131350221F749F3327A00D611D231F849F600DDE
S1131360211D822F762F6A2F11249F5750409AF007
S1131370F1F088234AF0EE0FFF1FBB1F661F771F93
S1131380881F91505040A9F79E3F510580F00C945E
S11313901B090C9466095F3FE4F3983ED4F38695E9
S11313A077956795B795F795E7959F5FC1F7FE2BFE
S11313B0880F911D9695879597F90895990F0008C0
S11313C0550FAA0BE0E8FEEF16161706E807F90713
S11313D0C0F012161306E407F50798F0621B730BAE
S11313E0840B950B39F40A2661F0232B242B252B2F
S11313F021F408950A2609F4A140A6958FEF811DD2
S1131400811D0895A29FB001B39FC001A39F01D085
S1131410B29F700D811D1124911D0895EE0FFF1FC1
S10F14200590F491E02D0994F894FFCF9E
S113142C3F065B4F666D7D077F6F777C395E797104
S113143C080A0C0E0000000010004000000100041B
S10B144C000000000000000094
S1071454FFFF010091
S9030000FC
