S01400004C617468655F617474696E792E737265632A
S11300001AC03EC03DC08AC1C8C13AC039C038C058
S113001037C043C135C034C033C066C131C030C0FD
S11300202FC02EC02DC02CC02BC02AC029C028C070
S113003027C026C09B0611241FBECFEFCDBFDFE330
S1130040DEBF1EE3A0E0BEE3ECECF4E102C00590E9
S11300500D92A430B107D9F72EE3A4E0BEE301C0AA
S11300601D92A632B207E1F710E0CBE1D0E003C065
S11300702197FE0115DACA31D107D1F7FAD216CA8F
S1130080BFCFE0E2F4E081E08183868388E081836E
S113009085830895CF93DF9300D0CDB7DEB719825F
S11300A01A82E0E2F4E088E0868391E29A95F1F71F
S11300B00000858381E28A95F1F7000020E0203179
S11300C000F5E0E2F4E08085827090E095958795F4
S11300D0022E02C0880F991F0A94E2F749815A81BF
S11300E0842B952B89839A8381E0858391E29A9569
S11300F0F1F70000868381E28A95F1F700002F5F13
S1130100DECF89819A810F900F90DF91CF9108956E
S11301100F931F93CF93DF93BDDF83FB002700F979
S113012010E0BC016470772776956795602B712B7E
S1130130AC0142705527440F551F9B01242B352BCE
S1130140BC0161707727660F771F660F771F660FF4
S1130150771F622B732B87FB222720F9C22F20E005
S1130160D22FAC0140745527569547955295429528
S11301704F7045275F7045274C2B5D2BFC01E072C7
S1130180FF27F695E795F695E795F695E7959A0195
S11301902E2B3F2BAC014071552756954795422B8A
S11301A0532BFC01EE27F870EF2FFF27E695E69519
S11301B0E6959C0122273470232F33272695E22BC2
S11301C0F32BDC01AA27B270AA0FAB2FAA1FBB0B1B
S11301D0B1959F012A2B3B2BFC01EE27F170F6957C
S11301E0E795F295E295EF70EF27FF70EF27E22B8A
S11301F0F32BDC01AA27BB0FAA1FBB279C012227D4
S11302003074232F33272295269527702A2B3B2BD6
S1130210DC01AA27B072AB2FBB27A695A695A6959D
S11302202A2B3B2B88279071892F99278695282B79
S1130230392BCA01880F991F440F551F440F551FAE
S1130240440F551F480F591FA4E6AE9FC001AF9F2E
S1130250900D1124480F591F640F751F48EE53E089
S1130260249FC001259F900D349F900D1124860F6B
S1130270971FDF91CF911F910F910895019761F41A
S11302806F3F7F4F49F480E1E0EBF4E9A5E0BEE382
S113029001900D928A95E1F708951F920F920FB67F
S11302A00F9211248F939F93EF93FF9380911E3E9F
S11302B090911F3E892B31F4E0E0FAE082858D7F36
S11302C0828709C080911E3E90911F3E01978093C2
S11302D01E3E90931F3EFF91EF919F918F910F903F
S11302E00FBE0F901F9018951F920F920FB60F928A
S11302F011248F9381E08093460A80934704809170
S11303001C3E882329F080911C3E815080931C3E22
S11303108F910F900FBE0F901F9018951F920F9200
S11303200FB60F9211248F939F93EF93FF9387E857
S113033093E10197F1F700C00000E0E0F4E08FEFF3
S113034081878085881F8827881F8093233E808526
S1130350807490E0082E892F000C881F990B000CE4
S1130360881F991F9091233E892B8093243E80857A
S1130370807190E095958795959587959595879546
S1130380959587958093223EFF91EF919F918F9150
S11303900F900FBE0F901F9018951F920F920FB6DB
S11303A00F9211248F939F93EF93FF9387E893E128
S11303B00197F1F700C00000E0E2F4E08FEF8187DD
S11303C08085847090E09595879595958795809321
S11303D0223EFF91EF919F918F910F900FBE0F904E
S11303E01F90189590E088ED84BF90936100089564
S11303F0E0EAF0E080E38083818182608183E0E051
S1130400F6E084E0808383E08183128282838683A2
S11304108185816081878081816080830895E0E0A7
S1130420FAE091E093838FEF87A380E881A711A27C
S113043080E1818386858160868785E08093193E8B
S1130440A091193E2081B0E0A054BB468C91822B30
S11304508083E0E4FAE01486158610821182808598
S113046081608087958308958091003E813029F5CD
S11304708091080486FD0EC080910804882364F0EE
S11304808091280482FD0AC08091080484FF08C07A
S113049081E007C081E005C081E003C081E001C0C4
S11304A080E08111E5CF1092003E8FEF9FEF8093A3
S11304B01E3E90931F3E80931C3E08959091080623
S11304C090FDFCCFE0E0F6E0868380858160808744
S11304D08091080680FDFCCF809110069091110652
S11304E096958795969587959695879599270895D6
S11304F0CF92DF92EF92FF92CF93DF93EC01E091E2
S1130500193EF0E0EE0FFF1FEC53FB466081718152
S113051080E090E095D66B017C01BE0180E090E024
S11305208FD69B01AC01C701B6011DD720E030E096
S113053048EC54E418D79B01AC0168E17DE08FE8F6
S11305409EE4D6D54ED6CB01DF91CF91FF90EF90AC
S1130550DF90CF9008952FEF8091253E2817D0F19A
S1130560E0E0FAE027A3822F869581A78091013EDF
S11305709091023E80931E3E90931F3E828582603E
S1130580828780911E3E90911F3E892B31F080918D
S1130590243E813021F080E003C080E001C081E08E
S11305A08111EFCF8091243E811112C082E08093AB
S11305B04604E0E0FAE082858D7F828710921E3E39
S11305C010921F3E10921D3E81E08093003E0895DC
S11305D02150C2CF08952091253E2D35F0F4E0E05E
S11305E0FAE027A3822F869581A78091013E9091FE
S11305F0023E80931E3E90931F3E828582608287D6
S113060080911E3E90911F3E892BD1F7E0E0FAE0E5
S113061082858D7F82872F5FE0CFE0E4F4E082E083
S1130620868384E0868310921D3E81E08093003EA1
S1130630089582E08093450481E080931D3E80E02C
S1130640873070F498E0909347042FE73AE196E0FE
S1130650215030409040E1F700C000008F5FF0CFA0
S1130660E0E4F4E088E0868382E0868310921D3E15
S11306700895CF93DF93CDB7DEB72697CDBFDEBF06
S1130680B1DEE0E4F4E080E8818B92E0968391832C
S1130690828B84E086838183A0E0B2E088E01296B6
S11306A08C9312978683818381E013968C9386833F
S11306B08183E0E0F4E089E8868B878B80933204C1
S11306C0848B96DE85E09EE3BBD384E09EE3D9DC95
S11306D0CBDEA5DE7894ADDFC7DE8091003E8111CC
S11306E00AC08091243E811108C08091223E882353
S11306F031F0D12C06C0D12C04C0D12C02C0DD2491
S1130700D394DD2009F419C1E0E0FAE080818E7F02
S11307108083A0E4BAE08C918E7F8C9383E08093F5
S1130720193EA091193E9081B0E0A054BB468C9133
S1130730892B808380E181838FEF87A380E881A761
S11307408091003E81110AC08091243E811108C02D
S11307508091223E882331F080E005C080E003C010
S113076080E001C08D2D882309F4B7CF84E09EE397
S1130770CFDC80931A3E90931B3E83E09FDE8095EE
S11307808093253E8091253E9BEA899F812D1124EB
S1130790869586958F5F8093253E8091253E8B308C
S11307A098F42091253E80EB94E034E6239F801951
S11307B0910911248093203E9093213E10E0EE2471
S11307C0EA94FE2C00E012C08091253E90E09C014A
S11307D0220F331F820F931F28E830E0A901481B22
S11307E0590B4093203E5093213EE8CF143008F03B
S11307F05BC0E12FF0E0EE0FFF1FEC53FB4660817E
S1130800718180E090E01CD54B015C016091203E39
S11308107091213E80E090E013D5A5019401A3D509
S113082020E030E048EC54E49ED59B01AC0168E143
S11308307DE08FE89EE45CD4D4D4C62E70E080E0E2
S113084090E0FED4A50194018ED520E030E048EC80
S113085054E489D59B01AC0168E17DE08FE89EE416
S113086047D4B8D42091203E3091213EA901461BA3
S1130870570B9A0122F422273327241B350B2E15FC
S11308803F0580F42091203E3091213EC901861B12
S1130890970B7C0122F4EE24FF24E81AF90A109342
S11308A0193E0C2D1F5FA2CF0093253EE091193E07
S11308B0F0E0EE0FFF1FEC53FB4660817181109155
S11308C0253E80E090E0BCD44B015C01612F70E0D8
S11308D080E090E0B7D49B01AC01C501B40143D5DD
S11308E020E030E046E954E43ED59B01AC0168E1E8
S11308F07DE08FE89EE4FCD320E030E040E251E468
S113090032D56FD46093013E7093023EF894A0E018
S1130910BAE01C92E091193E9C91F0E0E054FB4651
S11309208081892B8C9378948091253E90E0E0DD42
S1130930BC0185E09EE3B9D203CF8091003E8111D2
S11309400CC08091243E813041F48091223E81117B
S113095004C08091233E8823C1F08091003E811120
S113096016C08091243E8130A1F48091223E8111F1
S113097012C08091233E813081F48091203E909179
S1130980213E459760F01D2D0BC011E009C01D2DBF
S113099007C01D2D05C01D2D03C01D2D01C011E074
S11309A01123C9F180911D3E811112C082E0809310
S11309B0450481E080931D3E83EF91E00197F1F7B8
S11309C000C00000E0E0FAE0808181608083C3DD44
S11309D08091003E811110C08091243E813071F4D9
S11309E080911E3E90911F3E892B51F48091223EAE
S11309F0882341F08D2D07C08D2D05C08D2D03C09A
S1130A008D2D01C0812F8111E3CF8091243E81116E
S1130A1094CFE1DD92CF8091003E81110AC0809194
S1130A20243E811108C08091223E813031F0012F93
S1130A3005C0012F03C0012F01C001E00023A1F173
S1130A409FE7EAE1F6E09150E040F040E1F700C0B2
S1130A500000E0E4FAE080E293E08487958784E094
S1130A608093450483EF91E00197F1F700C0000003
S1130A708081816080838091003E81110AC08091D1
S1130A80243E811108C08091223E813031F0812FB3
S1130A9005C0812F03C0812F01C0802F8111EBCFAE
S1130AA084E080934604B7CF8091003E811116C044
S1130AB08091243E8130A1F48091223E813091F4D2
S1130AC08091203E9091213E459770F080911E3E8A
S1130AD090911F3E892B51F0102F09C0102F07C091
S1130AE0102F05C0102F03C0102F01C011E01123D7
S1130AF009F440C0E0E4FAE080E89EE38487958747
S1130B0080818160808384E080934504E3EFF1E099
S1130B103197F1F700C000008091003E811116C0AA
S1130B208091243E8130A1F48091223E813091F461
S1130B308091203E9091213E459770F080911E3E19
S1130B4090911F3E892B51F0802F09C0802F07C040
S1130B50802F05C0802F03C0802F01C0812F8111F9
S1130B60DBCF84E0809346048091243E81119CCFA6
S1130B7032DD9ACF8091003E811110C08091243ED5
S1130B80813071F48091223E813061F48091203E65
S1130B909091213E459740F0012F07C0012F05C0D9
S1130BA0012F03C0012F01C001E0002309F494CDFB
S1130BB0FFE72AE136E0F15020403040E1F700C081
S1130BC00000E0E0FAE080818E7F8083A0E4BAE058
S1130BD08C918E7F8C93118260911A3E70911B3E92
S1130BE080E090E02DD320E030E04AE754E480D266
S1130BF024ED3FE746E559E37BD29B01AC0160E07D
S1130C0070E088EC94E474D26B017C0169837A838C
S1130C108B839C83E6D26D837E83E0E4F4E082E000
S1130C20858381E080931D3E84E0858383EF91E09A
S1130C300197F1F700C000008091003E811110C0BF
S1130C408091243E813071F48091223E813061F4A0
S1130C508091203E9091213E459740F0812F07C01E
S1130C60812F05C0812F03C0812F01C0802F8823CD
S1130C7009F455C029813A814B815C81C701B601D1
S1130C80CBD120E030E040E85FE368D31816C4F429
S1130C9029813A814B815C81C701B601BDD14B01E9
S1130CA05C016D817E8180E090E0CAD29B01AC0141
S1130CB0C501B401B0D169837A838B839C830BC053
S1130CC029813A814B815C81C701B601A5D1698331
S1130CD07A838B839C8369817A818B819C8181D285
S1130CE06D837E838D819E81009779F028E0209327
S1130CF04704E3EFF1E03197F1F700C000002091E1
S1130D00243E222311F00197EFCF81E08093470422
S1130D1083EF91E00197F1F700C000008DCFE0E48C
S1130D20F4E082E0868384E0868310921D3E81E0B5
S1130D308093003E1FCF6FEF7FEF81E090E09EDA5B
S1130D400895E0E0F4E084E0858392E0958322E472
S1130D502A95F1F700C09683868382E48A95F1F799
S1130D6000C00895E0E0F4E094E0968382E0868396
S1130D7022E42A95F1F700C09583858382E48A955D
S1130D80F1F700C0089520E0283078F584E08093DE
S1130D90060482E48A95F1F700C081E090E0022E17
S1130DA002C0880F991F0A94E2F7462F50E084236B
S1130DB09523022E02C0959587950A94E2F7019730
S1130DC021F482E08093050403C082E0809306044A
S1130DD092E49A95F1F700C084E080930504E2E47C
S1130DE0EA95F1F700C02F5FCFCFE0E0F4E084E0B4
S1130DF0868392E49A95F1F700C092E0928385830A
S1130E0082E48A95F1F700C080858695817091838C
S1130E10E3EFF1E03197F1F700C0000008950F937C
S1130E201F93CF938C01C62F8CDF6C2F677068687B
S1130E30C801A9DFC80196DFCF911F910F910895D2
S1130E40E0E0F4E022E0218334E03183358325833C
S1130E5066E0E5DF0895EF92FF920F931F93CF931F
S1130E60DF93EC01E62EF42E122F6BDF60E4CE014B
S1130E708ADFCE0177DFCE0164DF60ECCE0183DF51
S1130E806E2DCE0180DF6F2DCE017DDF612FCE016F
S1130E907ADF602FCE0177DFCE0164DFDF91CF915F
S1130EA01F910F91FF90EF9008950F931F93FC01F2
S1130EB0AB01683E23E0720758F19B0136952795F4
S1130EC03695279536952795A5ECB0E2DDD28C01B1
S1130ED0129502950F7001271F7001279801ADEC40
S1130EE0BCECD2D2969587959695879596958795DD
S1130EF09C01220F331F880F991F880F991F880F99
S1130F00991F820F931F9801281B390B208B01C056
S1130F10108A4436510528F19A013695279536955D
S1130F202795ABE7B4E1B0D28C01169507959801EB
S1130F30ADECBCECA9D29695879596958795969538
S1130F4087959C01220F331F880F991F880F991FC3
S1130F50880F991F820F931F9801281B390B218B2F
S1130F6001C0118A4A30510518F19A01ADECBCEC6C
S1130F708BD28C01169507951695079516950795AE
S1130F80980182D29695879596958795969587959B
S1130F909C01220F331F880F991F880F991F880FF8
S1130FA0991F820F931F9801281B390B228B01C0B4
S1130FB0128A9A01ADECBCEC67D29695879596950A
S1130FC08795969587959C01220F331F880F991F4B
S1130FD0880F991F880F991F820F931F9A01281B4E
S1130FE0390B238B8389DF01A80FB11D0C918289F2
S1130FF0DF01A80FB11D2C918189DF01A80FB11D5C
S11310004C918089DF01A80FB11D6C91CF0123DFC2
S11310101F910F9108955058BB27AA270E942308B7
S11310200C9474090E94660938F00E946D0920F03E
S113103039F49F3F19F426F40C9463090EF4E095F7
S1131040E7FB0C945D09E92F0E94850958F3BA1750
S1131050620773078407950720F079F4A6F50C94CA
S1131060A7090EF4E0950B2EBA2FA02D0B01B901A0
S113107090010C01CA01A0011124FF27591B99F00A
S1131080593F50F4503E68F11A16F040A22F232F16
S1131090342F4427585FF3CF469537952795A79566
S11310A0F0405395C9F77EF41F16BA0B620B730B0D
S11310B0840BBAF09150A1F0FF0FBB1F661F771F7E
S11310C0881FC2F70EC0BA0F621F731F841F48F433
S11310D0879577956795B795F7959E3F08F0B0CFBC
S11310E09395880F08F09927EE0F979587950895A3
S11310F00E948C080C9474090E946D0958F00E9497
S1131100660940F029F45F3F29F00C945D09511100
S11311100C94A8090C9463090E94850968F3992327
S1131120B1F3552391F3951B550BBB27AA276217DF
S11311307307840738F09F5F5F4F220F331F441FEC
S1131140AA1FA9F335D00E2E3AF0E0E832D0915020
S11311505040E695001CCAF72BD0FE2F29D0660F0D
S1131160771F881FBB1F261737074807AB07B0E850
S113117009F0BB0B802DBF01FF2793585F4F3AF056
S11311809E3F510578F00C945D090C94A8095F3FCB
S1131190E4F3983ED4F3869577956795B795F795DC
S11311A09F5FC9F7880F911D9695879597F90895C4
S11311B0E1E0660F771F881FBB1F62177307840760
S11311C0BA0720F0621B730B840BBA0BEE1F88F76F
S11311D0E09508950E94F1086894B1110C94A8094F
S11311E008950E948D0988F09F5798F0B92F992788
S11311F0B751B0F0E1F0660F771F881F991F1AF0FE
S1131200BA95C9F714C0B13091F00E94A709B1E0B2
S113121008950C94A709672F782F8827B85F39F0B1
S1131220B93FCCF3869577956795B395D9F73EF496
S113123090958095709561957F4F8F4F9F4F08953E
S1131240E89409C097FB3EF490958095709561955C
S11312507F4F8F4F9F4F9923A9F0F92F96E9BB2712
S11312609395F695879577956795B795F111F8CF8E
S1131270FAF4BB0F11F460FF1BC06F5F7F4F8F4FF9
S11312809F4F16C0882311F096E911C0772321F0EF
S11312909EE8872F762F05C0662371F096E8862F87
S11312A070E060E02AF09A95660F771F881FDAF7DE
S11312B0880F9695879597F9089597F99F6780E821
S11312C070E060E008959FEF80EC089500240A9494
S11312D01616170618060906089500240A9412160D
S11312E01306140605060895092E0394000C11F440
S11312F0882352F0BB0F40F4BF2B11F460FF04C0ED
S11313006F5F7F4F8F4F9F4F089557FD9058440F45
S1131310551F59F05F3F71F04795880F97FB991F50
S113132061F09F3F79F0879508951216130614060D
S1131330551FF2CF4695F1DF08C01616170618069A
S1131340991FF1CF86957105610508940895E89475
S1131350BB2766277727CB0197F908950E94200AB7
S113136008F48FEF08950E94C6090C9474090E9432
S1131370660938F00E946D0920F0952311F00C9451
S11313805D090C94630911240C94A8090E94850931
S113139070F3959FC1F3950F50E0551F629FF001C4
S11313A0729FBB27F00DB11D639FAA27F00DB11DDD
S11313B0AA1F649F6627B00DA11D661F829F222766
S11313C0B00DA11D621F739FB00DA11D621F839FED
S11313D0A00D611D221F749F3327A00D611D231FC3
S11313E0849F600D211D822F762F6A2F11249F5711
S11313F050409AF0F1F088234AF0EE0FFF1FBB1F14
S1131400661F771F881F91505040A9F79E3F5105D2
S113141080F00C945D090C94A8095F3FE4F3983EB6
S1131420D4F3869577956795B795F795E7959F5F7C
S1131430C1F7FE2B880F911D9695879597F908950E
S1131440990F0008550FAA0BE0E8FEEF16161706D1
S1131450E807F907C0F012161306E407F50798F039
S1131460621B730B840B950B39F40A2661F0232B52
S1131470242B252B21F408950A2609F4A140A695CE
S11314808FEF811D811D0895A29FB001B39FC001FC
S1131490A39F01D0B29F700D811D1124911D089549
S11314A0EE0FFF1F0590F491E02D0994F894FFCFFF
S11314B03F065B4F666D7D077F6F777C395E797180
S10F14C0080A0C0E10004000000100049B
S10714CC01FFFF0019
S9030000FC
